:0400000076EF0AF09D
:100F0000009016005A16004E1600861300B212000A
:100F10008616007C160042160036160040150000AA
:100F20000000E21300000000000000000000661650
:0B0F300000161500681500801400007A
:100F3C00FDEC0AF01A0E236EF80EE82EFED7232EC7
:100F4C00FCD700D0000E256E000E266E000E1D6E16
:100F5C00200E1C6E250E1E6E000E1F6E000E216ED6
:100F6C00020E206E220EF66E0F0EF76E000EF86E4D
:100F7C0002D8CEEF07F00500FA6E0900F550FD6EB1
:100F8C000900F550FE6E0900F550FF6EFA50120084
:100F9C000009D8B4D4EF07F0D6EF07F022EF08F031
:100FAC00EEEF07F0370EF66E0F0EF76E000EF86EC2
:100FBC0002D8EEEF07F00500FA6E0900F550FD6E51
:100FCC000900F550FE6E0900F550FF6EFA50120044
:100FDC00310EF66E0F0EF76E000EF86E02D804EF9F
:100FEC0008F00500FA6E0900F550FD6E0900F55089
:100FFC00FE6E0900F550FF6EFA5012000009D8A4DD
:10100C000AEF08F00CEF08F0D8EF07F02E0EF66E92
:10101C000F0EF76E000EF86E02D822EF08F00500E6
:10102C00FA6E0900F550FD6E0900F550FE6E0900D0
:10103C00F550FF6EFA501200090E256E2668000E50
:10104C001D6E200E1C6E250E1E6E000E1F6E000EE9
:10105C00216E020E206E220EF66E0F0EF76E000E33
:10106C00F86E02D847EF08F00500FA6E0900F5504B
:10107C00FD6E0900F550FE6E0900F550FF6EFA503A
:10108C0012000009D8B44DEF08F04FEF08F09EEFB6
:10109C0008F067EF08F0370EF66E0F0EF76E000EC5
:1010AC00F86E02D867EF08F00500FA6E0900F550EB
:1010BC00FD6E0900F550FE6E0900F550FF6EFA50FA
:1010CC001200310EF66E0F0EF76E000EF86E02D88F
:1010DC007DEF08F00500FA6E0900F550FD6E090071
:1010EC00F550FE6E0900F550FF6EFA501200000923
:1010FC00D8A483EF08F085EF08F051EF08F02E0E1E
:10110C00F66E0F0EF76E000EF86E02D89BEF08F01D
:10111C000500FA6E0900F550FD6E0900F550FE6EE3
:10112C000900F550FF6EFA5012002650FF0A266E89
:10113C00060E246E130E236EAE0EE82EFED7232E53
:10114C00FCD7242EFAD725EF08F000EF00F0000EA4
:10115C00826E060E836E000E846E000E856E000E7F
:10116C00866E8768886889688A68070E8B6E0F019F
:10117C000C69F90E146F1C692169070E296F000E9A
:10118C000B6F060E136F000E1B6F000E206F000E00
:10119C00286F000E0A6F060E126F000E1A6F000EEB
:1011AC001F6F000E276F0969116919691E69070EF7
:1011BC00266F0869106918691D690F0E256F090ED5
:1011CC000E01B26F0F0EEB6F0A0EB36F100EEC6FB9
:1011DC00000E0F01076F000E066F000E056F000E5C
:1011EC000F6F000E0E6F000E0D6F000E176F000EBE
:1011FC00166F000E156F000E246F000E236F000E7D
:10120C00226F120059EC0BF0E9EC0AF00009D8B48B
:10121C0012EF09F014EF09F024EF09F0D5EC0AF005
:10122C000009D8B41CEF09F01EEF09F024EF09F007
:10123C00050E0E6E010E0D6E3CEF09F0DFEC0AF0A0
:10124C000009D8B42CEF09F02EEF09F03CEF09F0AF
:10125C00D5EC0AF00009D8B436EF09F038EF09F0F4
:10126C003CEF09F0050E0E6E020E0D6E0E50030DC6
:10127C00010EF324F66E0F0EF420F76EF86A000ED2
:10128C00F82202D857EF09F00500FA6E0900F55064
:10129C00FD6E0900F550FE6E0900F550FF6EFA5018
:1012AC0012000E6E1200040E1B6EF3EC0AF0000915
:1012BC00D8B463EF09F065EF09F08FEF09F00A502D
:1012CC000B10D8B46CEF09F06EEF09F07AEF09F05F
:1012DC006AEC0BF008C0D9FF09C0DAFFDF6E084AD0
:1012EC00092A0A06D8A00B060A500B10D8B481EFB5
:1012FC0009F083EF09F087EF09F053EC0BF091EF55
:10130C0009F066EC0BF050EC0BF0070E1B6E91EF36
:10131C0009F068EC0BF01B501200060E0E6E030E5B
:10132C000D6E5CEC0BF00E50030D010EF324F66EFB
:10133C000F0EF420F76EF86A000EF82202D8B4EF04
:10134C0009F00500FA6E0900F550FD6E0900F55024
:10135C00FE6E0900F550FF6EFA5012000E6E02D8A8
:10136C00C2EF09F00500FA6E1850FD6E1950FE6EB2
:10137C001A50FF6EFA501200120006500710D8B423
:10138C00CAEF09F0CCEF09F0DCEF09F00606D8A0A3
:10139C00070604C0D9FF05C0DAFF044A052ADF504E
:1013AC004CEC0BF0030E1C6EEFEF09F00C50D8B4A4
:1013BC00E2EF09F0E4EF09F0ECEF09F0000E0C6E2F
:1013CC0064EC0BF0010E1C6EEFEF09F021EC0BF04E
:1013DC001C6E1C501200000E226E8BEC0AF00009E1
:1013EC00D8A4FBEF09F0FDEF09F01BEF0AF0010E9A
:1013FC00016E1CC002F01DC003F0000E0C6E1EC06E
:10140C0004F01FC005F020C006F021C007F0000E4C
:10141C00086E000E096E000E0B6E000E0A6E000EAA
:10142C000D6E39EC0BF0010E226E22501200F29A66
:10143C000E01C591F280000E1B6E000E1C6E000E8C
:10144C001D6E14EC0BF00E01C593F282000E1B6E98
:10145C00000E1C6E000E1D6E0DEC0BF00E01C595F2
:10146C00F284000E1B6E000E1C6E000E1D6E06EC40
:10147C000BF012000E01C8A346EF0AF048EF0AF079
:10148C004AEF0AF093EC09F00E01C8A150EF0AF0F4
:10149C0052EF0AF05FEF0AF0C8A357EF0AF059EFCA
:1014AC000AF05DEF0AF093EC09F05FEF0AF008EC3C
:1014BC0009F01200000E016E000E036E0268000EA1
:1014CC00046E000E056E000E086E000E096E000E06
:1014DC000E6E59EC0BF05CEC0BF056EC0BF01200B2
:1014EC00DC0EF66E160EF76E000EF86E0900F5CFD8
:1014FC0027F00900F5CF28F000EE01F01A0EEE6A85
:10150C00E806FDE100019EEF07F0010E1B6E015095
:10151C00D8A493EF0AF095EF0AF09EEF0AF094B678
:10152C009AEF0AF09CEF0AF09EEF0AF0000E1B6E89
:10153C001B501200800E946E080E956E000E966E67
:10154C00000E976E090E926EDE0E1B6E160E1C6E42
:10155C00000E1D6EB4EC0AF0958A12001B501C1084
:10156C001D10D8B4BCEF0AF0BEEF0AF0C4EF0AF0BD
:10157C001BC018F01CC019F01DC01AF01200600E30
:10158C000E01D36F700ED46F000ED56F000ED76F97
:10159C00020ED96F000ED66F000ED86F120096BCDB
:1015AC00DAEF0AF0DDEF0AF0010EDEEF0AF0000EC2
:1015BC00120094BAE4EF0AF0E7EF0AF0010EE8EF3C
:1015CC000AF0000E120094AAEEEF0AF0F1EF0AF006
:1015DC00010EF2EF0AF0000E120094B0F8EF0AF0D0
:1015EC00FBEF0AF0010EFCEF0AF0000E1200C5EC46
:1015FC000AF0ADEC08F0A0EC0AF01DEC0AF01200B9
:10160C001BC00FF01CC010F01DC011F012001BC04D
:10161C0012F01CC013F01DC014F012001BC015F00A
:10162C001CC016F01DC017F012005FEC0BF0000E82
:10163C00016E000E12006CEC0BF060EC0AF0000E68
:10164C001200025002244CEC0BF0030E1200D88056
:10165C0002344CEC0BF0040E12000DC01BF0000E0B
:10166C000D6E1B50120062EC0BF0020E0E6E12008F
:10167C001BEC0BF01B6E1B50120021EC0BF01B6EC5
:10168C001B501200000E016E080E12001B6E1BC0C8
:10169C0091FF1200968A96881200969A96881200EC
:1016AC00959E959C12000E01C89112000E01C893D4
:1016BC001200959A958A120096801200968212005A
:1016CC009692120096861200915012009684120087
:0416DC001C0F1200CD
:020000040020DA
:10000000FFFFFFFFFFFFFFFFFFFFFFFFFFFFFFFF00
:10001000FFFFFFFFFFFFFFFFFFFFFFFFFFFFFFFFF0
:10002000FFFFFFFFFFFFFFFFFFFFFFFFFFFFFFFFE0
:10003000FFFFFFFFFFFFFFFFFFFFFFFFFFFFFFFFD0
:10004000FFFFFFFFFFFFFFFFFFFFFFFFFFFFFFFFC0
:10005000FFFFFFFFFFFFFFFFFFFFFFFFFFFFFFFFB0
:10006000FFFFFFFFFFFFFFFFFFFFFFFFFFFFFFFFA0
:10007000FFFFFFFFFFFFFFFFFFFFFFFFFFFFFFFF90
:10008000FFFFFFFFFFFFFFFFFFFFFFFFFFFFFFFF80
:10009000FFFFFFFFFFFFFFFFFFFFFFFFFFFFFFFF70
:1000A000FFFFFFFFFFFFFFFFFFFFFFFFFFFFFFFF60
:1000B000FFFFFFFFFFFFFFFFFFFFFFFFFFFFFFFF50
:1000C000FFFFFFFFFFFFFFFFFFFFFFFFFFFFFFFF40
:1000D000FFFFFFFFFFFFFFFFFFFFFFFFFFFFFFFF30
:1000E000FFFFFFFFFFFFFFFFFFFFFFFFFFFFFFFF20
:1000F000FFFFFFFFFFFFFFFFFFFFFFFFFFFFFFFF10
:020000040030CA
:0C000000FFFFFFFF9FFFFFFFFFFFFFFF60
:00000001FF
